{
  "contractName": "SolnSquareVerifier",
  "abi": [
    {
      "inputs": [
        {
          "internalType": "string",
          "name": "name",
          "type": "string"
        },
        {
          "internalType": "string",
          "name": "symbol",
          "type": "string"
        }
      ],
      "payable": false,
      "stateMutability": "nonpayable",
      "type": "constructor"
    },
    {
      "anonymous": false,
      "inputs": [
        {
          "indexed": true,
          "internalType": "address",
          "name": "owner",
          "type": "address"
        },
        {
          "indexed": true,
          "internalType": "address",
          "name": "approved",
          "type": "address"
        },
        {
          "indexed": true,
          "internalType": "uint256",
          "name": "tokenId",
          "type": "uint256"
        }
      ],
      "name": "Approval",
      "type": "event"
    },
    {
      "anonymous": false,
      "inputs": [
        {
          "indexed": true,
          "internalType": "address",
          "name": "owner",
          "type": "address"
        },
        {
          "indexed": true,
          "internalType": "address",
          "name": "operator",
          "type": "address"
        },
        {
          "indexed": false,
          "internalType": "bool",
          "name": "approved",
          "type": "bool"
        }
      ],
      "name": "ApprovalForAll",
      "type": "event"
    },
    {
      "anonymous": false,
      "inputs": [
        {
          "indexed": false,
          "internalType": "address",
          "name": "oldOwner",
          "type": "address"
        },
        {
          "indexed": false,
          "internalType": "address",
          "name": "newOwner",
          "type": "address"
        }
      ],
      "name": "OwnershipTransfered",
      "type": "event"
    },
    {
      "anonymous": false,
      "inputs": [
        {
          "indexed": false,
          "internalType": "address",
          "name": "triggerer",
          "type": "address"
        }
      ],
      "name": "Paused",
      "type": "event"
    },
    {
      "anonymous": false,
      "inputs": [
        {
          "indexed": false,
          "internalType": "address",
          "name": "sender",
          "type": "address"
        }
      ],
      "name": "SolutionAdded",
      "type": "event"
    },
    {
      "anonymous": false,
      "inputs": [
        {
          "indexed": true,
          "internalType": "address",
          "name": "from",
          "type": "address"
        },
        {
          "indexed": true,
          "internalType": "address",
          "name": "to",
          "type": "address"
        },
        {
          "indexed": true,
          "internalType": "uint256",
          "name": "tokenId",
          "type": "uint256"
        }
      ],
      "name": "Transfer",
      "type": "event"
    },
    {
      "anonymous": false,
      "inputs": [
        {
          "indexed": false,
          "internalType": "address",
          "name": "triggerer",
          "type": "address"
        }
      ],
      "name": "UnPaused",
      "type": "event"
    },
    {
      "constant": false,
      "inputs": [
        {
          "internalType": "bytes32",
          "name": "_myid",
          "type": "bytes32"
        },
        {
          "internalType": "string",
          "name": "_result",
          "type": "string"
        }
      ],
      "name": "__callback",
      "outputs": [],
      "payable": false,
      "stateMutability": "nonpayable",
      "type": "function"
    },
    {
      "constant": true,
      "inputs": [
        {
          "internalType": "bytes32",
          "name": "_myid",
          "type": "bytes32"
        },
        {
          "internalType": "string",
          "name": "_result",
          "type": "string"
        },
        {
          "internalType": "bytes",
          "name": "_proof",
          "type": "bytes"
        }
      ],
      "name": "__callback",
      "outputs": [],
      "payable": false,
      "stateMutability": "pure",
      "type": "function"
    },
    {
      "constant": false,
      "inputs": [
        {
          "internalType": "address",
          "name": "to",
          "type": "address"
        },
        {
          "internalType": "uint256",
          "name": "tokenId",
          "type": "uint256"
        }
      ],
      "name": "approve",
      "outputs": [],
      "payable": false,
      "stateMutability": "nonpayable",
      "type": "function"
    },
    {
      "constant": true,
      "inputs": [
        {
          "internalType": "address",
          "name": "owner",
          "type": "address"
        }
      ],
      "name": "balanceOf",
      "outputs": [
        {
          "internalType": "uint256",
          "name": "balance",
          "type": "uint256"
        }
      ],
      "payable": false,
      "stateMutability": "view",
      "type": "function"
    },
    {
      "constant": true,
      "inputs": [],
      "name": "baseTokenURI",
      "outputs": [
        {
          "internalType": "string",
          "name": "",
          "type": "string"
        }
      ],
      "payable": false,
      "stateMutability": "view",
      "type": "function"
    },
    {
      "constant": true,
      "inputs": [
        {
          "internalType": "uint256",
          "name": "tokenId",
          "type": "uint256"
        }
      ],
      "name": "getApproved",
      "outputs": [
        {
          "internalType": "address",
          "name": "approved",
          "type": "address"
        }
      ],
      "payable": false,
      "stateMutability": "view",
      "type": "function"
    },
    {
      "constant": true,
      "inputs": [],
      "name": "getOwner",
      "outputs": [
        {
          "internalType": "address",
          "name": "owner",
          "type": "address"
        }
      ],
      "payable": false,
      "stateMutability": "view",
      "type": "function"
    },
    {
      "constant": true,
      "inputs": [
        {
          "internalType": "address",
          "name": "owner",
          "type": "address"
        },
        {
          "internalType": "address",
          "name": "operator",
          "type": "address"
        }
      ],
      "name": "isApprovedForAll",
      "outputs": [
        {
          "internalType": "bool",
          "name": "",
          "type": "bool"
        }
      ],
      "payable": false,
      "stateMutability": "view",
      "type": "function"
    },
    {
      "constant": false,
      "inputs": [
        {
          "internalType": "address",
          "name": "to",
          "type": "address"
        },
        {
          "internalType": "uint256",
          "name": "tokenId",
          "type": "uint256"
        }
      ],
      "name": "mint",
      "outputs": [
        {
          "internalType": "bool",
          "name": "minted",
          "type": "bool"
        }
      ],
      "payable": false,
      "stateMutability": "nonpayable",
      "type": "function"
    },
    {
      "constant": true,
      "inputs": [],
      "name": "name",
      "outputs": [
        {
          "internalType": "string",
          "name": "",
          "type": "string"
        }
      ],
      "payable": false,
      "stateMutability": "view",
      "type": "function"
    },
    {
      "constant": true,
      "inputs": [
        {
          "internalType": "uint256",
          "name": "tokenId",
          "type": "uint256"
        }
      ],
      "name": "ownerOf",
      "outputs": [
        {
          "internalType": "address",
          "name": "owner",
          "type": "address"
        }
      ],
      "payable": false,
      "stateMutability": "view",
      "type": "function"
    },
    {
      "constant": false,
      "inputs": [
        {
          "internalType": "address",
          "name": "from",
          "type": "address"
        },
        {
          "internalType": "address",
          "name": "to",
          "type": "address"
        },
        {
          "internalType": "uint256",
          "name": "tokenId",
          "type": "uint256"
        }
      ],
      "name": "safeTransferFrom",
      "outputs": [],
      "payable": false,
      "stateMutability": "nonpayable",
      "type": "function"
    },
    {
      "constant": false,
      "inputs": [
        {
          "internalType": "address",
          "name": "from",
          "type": "address"
        },
        {
          "internalType": "address",
          "name": "to",
          "type": "address"
        },
        {
          "internalType": "uint256",
          "name": "tokenId",
          "type": "uint256"
        },
        {
          "internalType": "bytes",
          "name": "_data",
          "type": "bytes"
        }
      ],
      "name": "safeTransferFrom",
      "outputs": [],
      "payable": false,
      "stateMutability": "nonpayable",
      "type": "function"
    },
    {
      "constant": false,
      "inputs": [
        {
          "internalType": "address",
          "name": "to",
          "type": "address"
        },
        {
          "internalType": "bool",
          "name": "approved",
          "type": "bool"
        }
      ],
      "name": "setApprovalForAll",
      "outputs": [],
      "payable": false,
      "stateMutability": "nonpayable",
      "type": "function"
    },
    {
      "constant": false,
      "inputs": [
        {
          "internalType": "bool",
          "name": "isPaused",
          "type": "bool"
        }
      ],
      "name": "setPaused",
      "outputs": [],
      "payable": false,
      "stateMutability": "nonpayable",
      "type": "function"
    },
    {
      "constant": true,
      "inputs": [
        {
          "internalType": "bytes4",
          "name": "interfaceId",
          "type": "bytes4"
        }
      ],
      "name": "supportsInterface",
      "outputs": [
        {
          "internalType": "bool",
          "name": "",
          "type": "bool"
        }
      ],
      "payable": false,
      "stateMutability": "view",
      "type": "function"
    },
    {
      "constant": true,
      "inputs": [],
      "name": "symbol",
      "outputs": [
        {
          "internalType": "string",
          "name": "",
          "type": "string"
        }
      ],
      "payable": false,
      "stateMutability": "view",
      "type": "function"
    },
    {
      "constant": true,
      "inputs": [
        {
          "internalType": "uint256",
          "name": "index",
          "type": "uint256"
        }
      ],
      "name": "tokenByIndex",
      "outputs": [
        {
          "internalType": "uint256",
          "name": "",
          "type": "uint256"
        }
      ],
      "payable": false,
      "stateMutability": "view",
      "type": "function"
    },
    {
      "constant": true,
      "inputs": [
        {
          "internalType": "address",
          "name": "owner",
          "type": "address"
        },
        {
          "internalType": "uint256",
          "name": "index",
          "type": "uint256"
        }
      ],
      "name": "tokenOfOwnerByIndex",
      "outputs": [
        {
          "internalType": "uint256",
          "name": "",
          "type": "uint256"
        }
      ],
      "payable": false,
      "stateMutability": "view",
      "type": "function"
    },
    {
      "constant": true,
      "inputs": [
        {
          "internalType": "uint256",
          "name": "tokenId",
          "type": "uint256"
        }
      ],
      "name": "tokenURI",
      "outputs": [
        {
          "internalType": "string",
          "name": "",
          "type": "string"
        }
      ],
      "payable": false,
      "stateMutability": "view",
      "type": "function"
    },
    {
      "constant": true,
      "inputs": [],
      "name": "totalSupply",
      "outputs": [
        {
          "internalType": "uint256",
          "name": "",
          "type": "uint256"
        }
      ],
      "payable": false,
      "stateMutability": "view",
      "type": "function"
    },
    {
      "constant": false,
      "inputs": [
        {
          "internalType": "address",
          "name": "from",
          "type": "address"
        },
        {
          "internalType": "address",
          "name": "to",
          "type": "address"
        },
        {
          "internalType": "uint256",
          "name": "tokenId",
          "type": "uint256"
        }
      ],
      "name": "transferFrom",
      "outputs": [],
      "payable": false,
      "stateMutability": "nonpayable",
      "type": "function"
    },
    {
      "constant": false,
      "inputs": [
        {
          "internalType": "address",
          "name": "newOwner",
          "type": "address"
        }
      ],
      "name": "transferOwnership",
      "outputs": [],
      "payable": false,
      "stateMutability": "nonpayable",
      "type": "function"
    },
    {
      "constant": true,
      "inputs": [
        {
          "internalType": "uint256[2]",
          "name": "a",
          "type": "uint256[2]"
        },
        {
          "internalType": "uint256[2][2]",
          "name": "b",
          "type": "uint256[2][2]"
        },
        {
          "internalType": "uint256[2]",
          "name": "c",
          "type": "uint256[2]"
        },
        {
          "internalType": "uint256[2]",
          "name": "input",
          "type": "uint256[2]"
        }
      ],
      "name": "verifyTx",
      "outputs": [
        {
          "internalType": "bool",
          "name": "r",
          "type": "bool"
        }
      ],
      "payable": false,
      "stateMutability": "view",
      "type": "function"
    },
    {
      "constant": true,
      "inputs": [
        {
          "internalType": "address",
          "name": "owner",
          "type": "address"
        }
      ],
      "name": "solutionExists",
      "outputs": [
        {
          "internalType": "bool",
          "name": "exists",
          "type": "bool"
        }
      ],
      "payable": false,
      "stateMutability": "view",
      "type": "function"
    },
    {
      "constant": false,
      "inputs": [
        {
          "internalType": "uint256[2]",
          "name": "a",
          "type": "uint256[2]"
        },
        {
          "internalType": "uint256[2][2]",
          "name": "b",
          "type": "uint256[2][2]"
        },
        {
          "internalType": "uint256[2]",
          "name": "c",
          "type": "uint256[2]"
        },
        {
          "internalType": "uint256[2]",
          "name": "input",
          "type": "uint256[2]"
        }
      ],
      "name": "addSolution",
      "outputs": [],
      "payable": false,
      "stateMutability": "nonpayable",
      "type": "function"
    },
    {
      "constant": false,
      "inputs": [
        {
          "internalType": "address",
          "name": "to",
          "type": "address"
        },
        {
          "internalType": "uint256",
          "name": "tokenId",
          "type": "uint256"
        }
      ],
      "name": "mintNFT",
      "outputs": [
        {
          "internalType": "bool",
          "name": "minted",
          "type": "bool"
        }
      ],
      "payable": false,
      "stateMutability": "nonpayable",
      "type": "function"
    }
  ],
  "bytecode": "0x60806040523480156200001157600080fd5b5060405162004c2738038062004c27833981810160405260408110156200003757600080fd5b81019080805160405193929190846401000000008211156200005857600080fd5b838201915060208201858111156200006f57600080fd5b82518660018202830111640100000000821117156200008d57600080fd5b8083526020830192505050908051906020019080838360005b83811015620000c3578082015181840152602081019050620000a6565b50505050905090810190601f168015620000f15780820380516001836020036101000a031916815260200191505b50604052602001805160405193929190846401000000008211156200011557600080fd5b838201915060208201858111156200012c57600080fd5b82518660018202830111640100000000821117156200014a57600080fd5b8083526020830192505050908051906020019080838360005b838110156200018057808201518184015260208101905062000163565b50505050905090810190601f168015620001ae5780820380516001836020036101000a031916815260200191505b50604052505050818181816040518060600160405280603f815260200162004be8603f9139336000806101000a81548173ffffffffffffffffffffffffffffffffffffffff021916908373ffffffffffffffffffffffffffffffffffffffff1602179055507f0d18b5fd22306e373229b9439188228edca81207d1667f604daf6cef8aa3ee6760008060009054906101000a900473ffffffffffffffffffffffffffffffffffffffff16604051808373ffffffffffffffffffffffffffffffffffffffff1673ffffffffffffffffffffffffffffffffffffffff1681526020018273ffffffffffffffffffffffffffffffffffffffff1673ffffffffffffffffffffffffffffffffffffffff1681526020019250505060405180910390a160008060146101000a81548160ff021916908315150217905550620002fe6301ffc9a760e01b6200039e60201b60201c565b620003166380ac58cd60e01b6200039e60201b60201c565b6200032e63780e9d6360e01b6200039e60201b60201c565b82600f9080519060200190620003469291906200043e565b5081601090805190602001906200035f9291906200043e565b508060119080519060200190620003789291906200043e565b5062000391635b5e139f60e01b6200039e60201b60201c565b50505050505050620004ed565b63ffffffff60e01b817bffffffffffffffffffffffffffffffffffffffffffffffffffffffff19161415620003d257600080fd5b6001806000837bffffffffffffffffffffffffffffffffffffffffffffffffffffffff19167bffffffffffffffffffffffffffffffffffffffffffffffffffffffff1916815260200190815260200160002060006101000a81548160ff02191690831515021790555050565b828054600181600116156101000203166002900490600052602060002090601f016020900481019282601f106200048157805160ff1916838001178555620004b2565b82800160010185558215620004b2579182015b82811115620004b157825182559160200191906001019062000494565b5b509050620004c19190620004c5565b5090565b620004ea91905b80821115620004e6576000816000905550600101620004cc565b5090565b90565b6146eb80620004fd6000396000f3fe608060405234801561001057600080fd5b50600436106101a95760003560e01c80634f6ccce7116100f9578063a22cb46511610097578063d547cfb711610071578063d547cfb714610d71578063e985e9c514610df4578063f2fde38b14610e70578063f76b443114610eb4576101a9565b8063a22cb46514610b75578063b88d4fde14610bc5578063c87b56dd14610cca576101a9565b806370a08231116100d357806370a08231146109f457806377387c5114610a4c578063893d20e814610aa857806395d89b4114610af2576101a9565b80634f6ccce7146107cb578063621e9ec01461080d5780636352211e14610986576101a9565b806323b872dd1161016657806338bbfa501161014057806338bbfa50146105355780633c168eab1461069157806340c10f19146106f757806342842e0e1461075d576101a9565b806323b872dd146103a057806327dc297e1461040e5780632f745c59146104d3576101a9565b806301ffc9a7146101ae57806306fdde0314610213578063081812fc14610296578063095ea7b31461030457806316c38b3c1461035257806318160ddd14610382575b600080fd5b6101f9600480360360208110156101c457600080fd5b8101908080357bffffffffffffffffffffffffffffffffffffffffffffffffffffffff19169060200190929190505050611015565b604051808215151515815260200191505060405180910390f35b61021b61107d565b6040518080602001828103825283818151815260200191508051906020019080838360005b8381101561025b578082015181840152602081019050610240565b50505050905090810190601f1680156102885780820380516001836020036101000a031916815260200191505b509250505060405180910390f35b6102c2600480360360208110156102ac57600080fd5b810190808035906020019092919050505061111f565b604051808273ffffffffffffffffffffffffffffffffffffffff1673ffffffffffffffffffffffffffffffffffffffff16815260200191505060405180910390f35b6103506004803603604081101561031a57600080fd5b81019080803573ffffffffffffffffffffffffffffffffffffffff169060200190929190803590602001909291905050506111d7565b005b6103806004803603602081101561036857600080fd5b810190808035151590602001909291905050506113b0565b005b61038a611544565b6040518082815260200191505060405180910390f35b61040c600480360360608110156103b657600080fd5b81019080803573ffffffffffffffffffffffffffffffffffffffff169060200190929190803573ffffffffffffffffffffffffffffffffffffffff16906020019092919080359060200190929190505050611551565b005b6104d16004803603604081101561042457600080fd5b81019080803590602001909291908035906020019064010000000081111561044b57600080fd5b82018360208201111561045d57600080fd5b8035906020019184600183028401116401000000008311171561047f57600080fd5b91908080601f016020809104026020016040519081016040528093929190818152602001838380828437600081840152601f19601f820116905080830192505050505050509192919290505050611574565b005b61051f600480360360408110156104e957600080fd5b81019080803573ffffffffffffffffffffffffffffffffffffffff169060200190929190803590602001909291905050506115b7565b6040518082815260200191505060405180910390f35b61068f6004803603606081101561054b57600080fd5b81019080803590602001909291908035906020019064010000000081111561057257600080fd5b82018360208201111561058457600080fd5b803590602001918460018302840111640100000000831117156105a657600080fd5b91908080601f016020809104026020016040519081016040528093929190818152602001838380828437600081840152601f19601f8201169050808301925050505050505091929192908035906020019064010000000081111561060957600080fd5b82018360208201111561061b57600080fd5b8035906020019184600183028401116401000000008311171561063d57600080fd5b91908080601f016020809104026020016040519081016040528093929190818152602001838380828437600081840152601f19601f82011690508083019250505050505050919291929050505061162a565b005b6106dd600480360360408110156106a757600080fd5b81019080803573ffffffffffffffffffffffffffffffffffffffff1690602001909291908035906020019092919050505061162f565b604051808215151515815260200191505060405180910390f35b6107436004803603604081101561070d57600080fd5b81019080803573ffffffffffffffffffffffffffffffffffffffff169060200190929190803590602001909291905050506117fe565b604051808215151515815260200191505060405180910390f35b6107c96004803603606081101561077357600080fd5b81019080803573ffffffffffffffffffffffffffffffffffffffff169060200190929190803573ffffffffffffffffffffffffffffffffffffffff169060200190929190803590602001909291905050506118c2565b005b6107f7600480360360208110156107e157600080fd5b81019080803590602001909291905050506118e2565b6040518082815260200191505060405180910390f35b61096c600480360361014081101561082457600080fd5b8101908080604001906002806020026040519081016040528092919082600260200280828437600081840152601f19601f82011690508083019250505050505091929192908060800190600280602002604051908101604052809291906000905b828210156108d9578382604002016002806020026040519081016040528092919082600260200280828437600081840152601f19601f82011690508083019250505050505081526020019060010190610885565b50505050919291929080604001906002806020026040519081016040528092919082600260200280828437600081840152601f19601f820116905080830192505050505050919291929080604001906002806020026040519081016040528092919082600260200280828437600081840152601f19601f8201169050808301925050505050509192919290505050611916565b604051808215151515815260200191505060405180910390f35b6109b26004803603602081101561099c57600080fd5b8101908080359060200190929190505050611b12565b604051808273ffffffffffffffffffffffffffffffffffffffff1673ffffffffffffffffffffffffffffffffffffffff16815260200191505060405180910390f35b610a3660048036036020811015610a0a57600080fd5b81019080803573ffffffffffffffffffffffffffffffffffffffff169060200190929190505050611b4f565b6040518082815260200191505060405180910390f35b610a8e60048036036020811015610a6257600080fd5b81019080803573ffffffffffffffffffffffffffffffffffffffff169060200190929190505050611b9f565b604051808215151515815260200191505060405180910390f35b610ab0611c0b565b604051808273ffffffffffffffffffffffffffffffffffffffff1673ffffffffffffffffffffffffffffffffffffffff16815260200191505060405180910390f35b610afa611c34565b6040518080602001828103825283818151815260200191508051906020019080838360005b83811015610b3a578082015181840152602081019050610b1f565b50505050905090810190601f168015610b675780820380516001836020036101000a031916815260200191505b509250505060405180910390f35b610bc360048036036040811015610b8b57600080fd5b81019080803573ffffffffffffffffffffffffffffffffffffffff169060200190929190803515159060200190929190505050611cd6565b005b610cc860048036036080811015610bdb57600080fd5b81019080803573ffffffffffffffffffffffffffffffffffffffff169060200190929190803573ffffffffffffffffffffffffffffffffffffffff1690602001909291908035906020019092919080359060200190640100000000811115610c4257600080fd5b820183602082011115610c5457600080fd5b80359060200191846001830284011164010000000083111715610c7657600080fd5b91908080601f016020809104026020016040519081016040528093929190818152602001838380828437600081840152601f19601f820116905080830192505050505050509192919290505050611e10565b005b610cf660048036036020811015610ce057600080fd5b8101908080359060200190929190505050611e36565b6040518080602001828103825283818151815260200191508051906020019080838360005b83811015610d36578082015181840152602081019050610d1b565b50505050905090810190601f168015610d635780820380516001836020036101000a031916815260200191505b509250505060405180910390f35b610d79611efd565b6040518080602001828103825283818151815260200191508051906020019080838360005b83811015610db9578082015181840152602081019050610d9e565b50505050905090810190601f168015610de65780820380516001836020036101000a031916815260200191505b509250505060405180910390f35b610e5660048036036040811015610e0a57600080fd5b81019080803573ffffffffffffffffffffffffffffffffffffffff169060200190929190803573ffffffffffffffffffffffffffffffffffffffff169060200190929190505050611f9f565b604051808215151515815260200191505060405180910390f35b610eb260048036036020811015610e8657600080fd5b81019080803573ffffffffffffffffffffffffffffffffffffffff169060200190929190505050612033565b005b6110136004803603610140811015610ecb57600080fd5b8101908080604001906002806020026040519081016040528092919082600260200280828437600081840152601f19601f82011690508083019250505050505091929192908060800190600280602002604051908101604052809291906000905b82821015610f80578382604002016002806020026040519081016040528092919082600260200280828437600081840152601f19601f82011690508083019250505050505081526020019060010190610f2c565b50505050919291929080604001906002806020026040519081016040528092919082600260200280828437600081840152601f19601f820116905080830192505050505050919291929080604001906002806020026040519081016040528092919082600260200280828437600081840152601f19601f820116905080830192505050505050919291929050505061227a565b005b600060016000837bffffffffffffffffffffffffffffffffffffffffffffffffffffffff19167bffffffffffffffffffffffffffffffffffffffffffffffffffffffff1916815260200190815260200160002060009054906101000a900460ff169050919050565b6060600f8054600181600116156101000203166002900480601f0160208091040260200160405190810160405280929190818152602001828054600181600116156101000203166002900480156111155780601f106110ea57610100808354040283529160200191611115565b820191906000526020600020905b8154815290600101906020018083116110f857829003601f168201915b5050505050905090565b600061112a8261268f565b61119c576040517f08c379a00000000000000000000000000000000000000000000000000000000081526004018080602001828103825260148152602001807f34303420546f6b656e206e6f7420666f756e642100000000000000000000000081525060200191505060405180910390fd5b6003600083815260200190815260200160002060009054906101000a900473ffffffffffffffffffffffffffffffffffffffff169050919050565b60006111e282611b12565b90508273ffffffffffffffffffffffffffffffffffffffff168173ffffffffffffffffffffffffffffffffffffffff161415611269576040517f08c379a000000000000000000000000000000000000000000000000000000000815260040180806020018281038252602681526020018061463e6026913960400191505060405180910390fd5b8073ffffffffffffffffffffffffffffffffffffffff163373ffffffffffffffffffffffffffffffffffffffff1614806112a957506112a88133611f9f565b5b6112fe576040517f08c379a000000000000000000000000000000000000000000000000000000000815260040180806020018281038252602381526020018061461b6023913960400191505060405180910390fd5b826003600084815260200190815260200160002060006101000a81548173ffffffffffffffffffffffffffffffffffffffff021916908373ffffffffffffffffffffffffffffffffffffffff160217905550818373ffffffffffffffffffffffffffffffffffffffff168273ffffffffffffffffffffffffffffffffffffffff167f8c5be1e5ebec7d5bd14f71427d1e84f3dd0314c0f7b2291e5b200ac8c7c3b92560405160405180910390a4505050565b6000809054906101000a900473ffffffffffffffffffffffffffffffffffffffff1673ffffffffffffffffffffffffffffffffffffffff163373ffffffffffffffffffffffffffffffffffffffff1614611455576040517f08c379a00000000000000000000000000000000000000000000000000000000081526004018080602001828103825260218152602001806146646021913960400191505060405180910390fd5b80600060146101000a81548160ff02191690831515021790555080156114dd577f62e78cea01bee320cd4e420270b5ea74000d11b0c9f74754ebdbfc544b05a25833604051808273ffffffffffffffffffffffffffffffffffffffff1673ffffffffffffffffffffffffffffffffffffffff16815260200191505060405180910390a1611541565b7fff2b959f2bcdb44c7ecb4b16dae055431019d7350607125cfc2b74a06632c90e33604051808273ffffffffffffffffffffffffffffffffffffffff1673ffffffffffffffffffffffffffffffffffffffff16815260200191505060405180910390a15b50565b6000600880549050905090565b61155b3382612701565b61156457600080fd5b61156f838383612796565b505050565b6115b3828260006040519080825280601f01601f1916602001820160405280156115ad5781602001600182028038833980820191505090505b5061162a565b5050565b60006115c283611b4f565b82106115cd57600080fd5b600660008473ffffffffffffffffffffffffffffffffffffffff1673ffffffffffffffffffffffffffffffffffffffff168152602001908152602001600020828154811061161757fe5b9060005260206000200154905092915050565b505050565b60008060001b601460008573ffffffffffffffffffffffffffffffffffffffff1673ffffffffffffffffffffffffffffffffffffffff16815260200190815260200160002060000154116116eb576040517f08c379a00000000000000000000000000000000000000000000000000000000081526004018080602001828103825260178152602001807f34303420536f6c7574696f6e204e6f7420466f756e642100000000000000000081525060200191505060405180910390fd5b6000601460008573ffffffffffffffffffffffffffffffffffffffff1673ffffffffffffffffffffffffffffffffffffffff16815260200190815260200160002060020154146117a3576040517f08c379a000000000000000000000000000000000000000000000000000000000815260040180806020018281038252601a8152602001807f536f6c7574696f6e20616c72656164792068617320746f6b656e00000000000081525060200191505060405180910390fd5b6117ad83836127ba565b81601460008573ffffffffffffffffffffffffffffffffffffffff1673ffffffffffffffffffffffffffffffffffffffff168152602001908152602001600020600201819055506001905092915050565b60008060009054906101000a900473ffffffffffffffffffffffffffffffffffffffff1673ffffffffffffffffffffffffffffffffffffffff163373ffffffffffffffffffffffffffffffffffffffff16146118a5576040517f08c379a00000000000000000000000000000000000000000000000000000000081526004018080602001828103825260218152602001806146646021913960400191505060405180910390fd5b6118af83836127ba565b6118b8826127db565b6001905092915050565b6118dd83838360405180602001604052806000815250611e10565b505050565b60006118ec611544565b82106118f757600080fd5b6008828154811061190457fe5b90600052602060002001549050919050565b60006119206143b3565b60405180604001604052808760006002811061193857fe5b602002015181526020018760016002811061194f57fe5b60200201518152508160000181905250604051806040016040528060405180604001604052808860006002811061198257fe5b602002015160006002811061199357fe5b60200201518152602001886000600281106119aa57fe5b60200201516001600281106119bb57fe5b602002015181525081526020016040518060400160405280886001600281106119e057fe5b60200201516000600281106119f157fe5b6020020151815260200188600160028110611a0857fe5b6020020151600160028110611a1957fe5b60200201518152508152508160200181905250604051806040016040528085600060028110611a4457fe5b6020020151815260200185600160028110611a5b57fe5b6020020151815250816040018190525060606002604051908082528060200260200182016040528015611a9d5781602001602082028038833980820191505090505b50905060008090505b6002811015611ae557848160028110611abb57fe5b6020020151828281518110611acc57fe5b6020026020010181815250508080600101915050611aa6565b506000611af28284612938565b1415611b0357600192505050611b0a565b6000925050505b949350505050565b60006002600083815260200190815260200160002060009054906101000a900473ffffffffffffffffffffffffffffffffffffffff169050919050565b6000611b98600460008473ffffffffffffffffffffffffffffffffffffffff1673ffffffffffffffffffffffffffffffffffffffff168152602001908152602001600020612aaa565b9050919050565b600060156000601460008573ffffffffffffffffffffffffffffffffffffffff1673ffffffffffffffffffffffffffffffffffffffff16815260200190815260200160002060000154815260200190815260200160002060009054906101000a900460ff169050919050565b60008060009054906101000a900473ffffffffffffffffffffffffffffffffffffffff16905090565b606060108054600181600116156101000203166002900480601f016020809104026020016040519081016040528092919081815260200182805460018160011615610100020316600290048015611ccc5780601f10611ca157610100808354040283529160200191611ccc565b820191906000526020600020905b815481529060010190602001808311611caf57829003601f168201915b5050505050905090565b3373ffffffffffffffffffffffffffffffffffffffff168273ffffffffffffffffffffffffffffffffffffffff161415611d0f57600080fd5b80600560003373ffffffffffffffffffffffffffffffffffffffff1673ffffffffffffffffffffffffffffffffffffffff16815260200190815260200160002060008473ffffffffffffffffffffffffffffffffffffffff1673ffffffffffffffffffffffffffffffffffffffff16815260200190815260200160002060006101000a81548160ff0219169083151502179055508173ffffffffffffffffffffffffffffffffffffffff163373ffffffffffffffffffffffffffffffffffffffff167f17307eab39ab6107e8899845ad3d59bd9653f200f220920489ca2b5937696c3183604051808215151515815260200191505060405180910390a35050565b611e1b848484611551565b611e2784848484612ab8565b611e3057600080fd5b50505050565b6060611e418261268f565b611e4a57600080fd5b601260008381526020019081526020016000208054600181600116156101000203166002900480601f016020809104026020016040519081016040528092919081815260200182805460018160011615610100020316600290048015611ef15780601f10611ec657610100808354040283529160200191611ef1565b820191906000526020600020905b815481529060010190602001808311611ed457829003601f168201915b50505050509050919050565b606060118054600181600116156101000203166002900480601f016020809104026020016040519081016040528092919081815260200182805460018160011615610100020316600290048015611f955780601f10611f6a57610100808354040283529160200191611f95565b820191906000526020600020905b815481529060010190602001808311611f7857829003601f168201915b5050505050905090565b6000600560008473ffffffffffffffffffffffffffffffffffffffff1673ffffffffffffffffffffffffffffffffffffffff16815260200190815260200160002060008373ffffffffffffffffffffffffffffffffffffffff1673ffffffffffffffffffffffffffffffffffffffff16815260200190815260200160002060009054906101000a900460ff16905092915050565b6000809054906101000a900473ffffffffffffffffffffffffffffffffffffffff1673ffffffffffffffffffffffffffffffffffffffff163373ffffffffffffffffffffffffffffffffffffffff16146120d8576040517f08c379a00000000000000000000000000000000000000000000000000000000081526004018080602001828103825260218152602001806146646021913960400191505060405180910390fd5b3273ffffffffffffffffffffffffffffffffffffffff163373ffffffffffffffffffffffffffffffffffffffff1614612179576040517f08c379a000000000000000000000000000000000000000000000000000000000815260040180806020018281038252601e8152602001807f53656e646572206d7573742062652061207265616c20636f6e7472616374000081525060200191505060405180910390fd5b60008060009054906101000a900473ffffffffffffffffffffffffffffffffffffffff169050816000806101000a81548173ffffffffffffffffffffffffffffffffffffffff021916908373ffffffffffffffffffffffffffffffffffffffff1602179055507f0d18b5fd22306e373229b9439188228edca81207d1667f604daf6cef8aa3ee678183604051808373ffffffffffffffffffffffffffffffffffffffff1673ffffffffffffffffffffffffffffffffffffffff1681526020018273ffffffffffffffffffffffffffffffffffffffff1673ffffffffffffffffffffffffffffffffffffffff1681526020019250505060405180910390a15050565b6000848484846040516020018085600260200280838360005b838110156122ae578082015181840152602081019050612293565b505050509050018460026000925b818410156123025782846020020151600260200280838360005b838110156122f15780820151818401526020810190506122d6565b5050505090500192600101926122bc565b9250505083600260200280838360005b8381101561232d578082015181840152602081019050612312565b5050505090500182600260200280838360005b8381101561235b578082015181840152602081019050612340565b505050509050019450505050506040516020818303038152906040528051906020012090506015600082815260200190815260200160002060009054906101000a900460ff1615612414576040517f08c379a00000000000000000000000000000000000000000000000000000000081526004018080602001828103825260188152602001807f536f6c7574696f6e20616c72656164792065786973747321000000000000000081525060200191505060405180910390fd5b61242085858585611916565b612492576040517f08c379a000000000000000000000000000000000000000000000000000000000815260040180806020018281038252601a8152602001807f536f6c7574696f6e20776173206e6f742076657269666965642100000000000081525060200191505060405180910390fd5b61249a6143e6565b60405180606001604052808381526020013373ffffffffffffffffffffffffffffffffffffffff16815260200160008152509050601381908060018154018082558091505090600182039060005260206000209060030201600090919290919091506000820151816000015560208201518160010160006101000a81548173ffffffffffffffffffffffffffffffffffffffff021916908373ffffffffffffffffffffffffffffffffffffffff1602179055506040820151816002015550505060016015600084815260200190815260200160002060006101000a81548160ff02191690831515021790555080601460003373ffffffffffffffffffffffffffffffffffffffff1673ffffffffffffffffffffffffffffffffffffffff1681526020019081526020016000206000820151816000015560208201518160010160006101000a81548173ffffffffffffffffffffffffffffffffffffffff021916908373ffffffffffffffffffffffffffffffffffffffff160217905550604082015181600201559050507f209e782baeeecf4956303cb3e836fdf3f7279e6729ebccf2d309c292aedd3aeb33604051808273ffffffffffffffffffffffffffffffffffffffff1673ffffffffffffffffffffffffffffffffffffffff16815260200191505060405180910390a1505050505050565b6000806002600084815260200190815260200160002060009054906101000a900473ffffffffffffffffffffffffffffffffffffffff169050600073ffffffffffffffffffffffffffffffffffffffff168173ffffffffffffffffffffffffffffffffffffffff161415915050919050565b60008061270d83611b12565b90508073ffffffffffffffffffffffffffffffffffffffff168473ffffffffffffffffffffffffffffffffffffffff16148061277c57508373ffffffffffffffffffffffffffffffffffffffff166127648461111f565b73ffffffffffffffffffffffffffffffffffffffff16145b8061278d575061278c8185611f9f565b5b91505092915050565b6127a1838383612ca1565b6127ab8382612f46565b6127b582826130e4565b505050565b6127c482826131ab565b6127ce82826130e4565b6127d7816133c4565b5050565b6127e48161268f565b612856576040517f08c379a00000000000000000000000000000000000000000000000000000000081526004018080602001828103825260138152602001807f34303420546f6b656e204e6f7420466f756e640000000000000000000000000081525060200191505060405180910390fd5b606061286182613410565b9050606061290960118054600181600116156101000203166002900480601f0160208091040260200160405190810160405280929190818152602001828054600181600116156101000203166002900480156128fe5780601f106128d3576101008083540402835291602001916128fe565b820191906000526020600020905b8154815290600101906020018083116128e157829003601f168201915b50505050508361353d565b905080601260008581526020019081526020016000209080519060200190612932929190614420565b50505050565b6000807f30644e72e131a029b85045b68181585d2833e84879b9709143e1f593f000000190506129666144a0565b61296e613581565b905080608001515160018651011461298557600080fd5b61298d6144e7565b6040518060400160405280600081526020016000815250905060008090505b8651811015612a2357838782815181106129c257fe5b6020026020010151106129d457600080fd5b612a1482612a0f856080015160018501815181106129ee57fe5b60200260200101518a8581518110612a0257fe5b60200260200101516139cf565b613a61565b915080806001019150506129ac565b50612a46818360800151600081518110612a3957fe5b6020026020010151613a61565b9050612a8c85600001518660200151612a5e84613b12565b8560400151612a708a60400151613b12565b8760600151612a828960000151613b12565b8960200151613bac565b612a9c5760019350505050612aa4565b600093505050505b92915050565b600081600001549050919050565b6000612ad98473ffffffffffffffffffffffffffffffffffffffff16613d10565b612ae65760019050612c99565b60008473ffffffffffffffffffffffffffffffffffffffff1663150b7a02338887876040518563ffffffff1660e01b8152600401808573ffffffffffffffffffffffffffffffffffffffff1673ffffffffffffffffffffffffffffffffffffffff1681526020018473ffffffffffffffffffffffffffffffffffffffff1673ffffffffffffffffffffffffffffffffffffffff16815260200183815260200180602001828103825283818151815260200191508051906020019080838360005b83811015612bc1578082015181840152602081019050612ba6565b50505050905090810190601f168015612bee5780820380516001836020036101000a031916815260200191505b5095505050505050602060405180830381600087803b158015612c1057600080fd5b505af1158015612c24573d6000803e3d6000fd5b505050506040513d6020811015612c3a57600080fd5b8101908080519060200190929190505050905063150b7a0260e01b7bffffffffffffffffffffffffffffffffffffffffffffffffffffffff1916817bffffffffffffffffffffffffffffffffffffffffffffffffffffffff1916149150505b949350505050565b612caa81611b12565b73ffffffffffffffffffffffffffffffffffffffff168373ffffffffffffffffffffffffffffffffffffffff1614612d2d576040517f08c379a00000000000000000000000000000000000000000000000000000000081526004018080602001828103825260328152602001806146856032913960400191505060405180910390fd5b600073ffffffffffffffffffffffffffffffffffffffff168273ffffffffffffffffffffffffffffffffffffffff161415612dd0576040517f08c379a000000000000000000000000000000000000000000000000000000000815260040180806020018281038252601c8152602001807f5468652060746f60206164647265737320697320696e76616c6964210000000081525060200191505060405180910390fd5b6003600082815260200190815260200160002060006101000a81549073ffffffffffffffffffffffffffffffffffffffff0219169055612e4d600460008573ffffffffffffffffffffffffffffffffffffffff1673ffffffffffffffffffffffffffffffffffffffff168152602001908152602001600020613d5b565b816002600083815260200190815260200160002060006101000a81548173ffffffffffffffffffffffffffffffffffffffff021916908373ffffffffffffffffffffffffffffffffffffffff160217905550612ee6600460008473ffffffffffffffffffffffffffffffffffffffff1673ffffffffffffffffffffffffffffffffffffffff168152602001908152602001600020613d7e565b808273ffffffffffffffffffffffffffffffffffffffff168473ffffffffffffffffffffffffffffffffffffffff167fddf252ad1be2c89b69c2b068fc378daa952ba7f163c4a11628f55a4df523b3ef60405160405180910390a4505050565b6000612f9e6001600660008673ffffffffffffffffffffffffffffffffffffffff1673ffffffffffffffffffffffffffffffffffffffff16815260200190815260200160002080549050613d9490919063ffffffff16565b905060006007600084815260200190815260200160002054905081811461308b576000600660008673ffffffffffffffffffffffffffffffffffffffff1673ffffffffffffffffffffffffffffffffffffffff168152602001908152602001600020838154811061300b57fe5b9060005260206000200154905080600660008773ffffffffffffffffffffffffffffffffffffffff1673ffffffffffffffffffffffffffffffffffffffff168152602001908152602001600020838154811061306357fe5b9060005260206000200181905550816007600083815260200190815260200160002081905550505b600660008573ffffffffffffffffffffffffffffffffffffffff1673ffffffffffffffffffffffffffffffffffffffff1681526020019081526020016000208054809190600190036130dd9190614501565b5050505050565b600660008373ffffffffffffffffffffffffffffffffffffffff1673ffffffffffffffffffffffffffffffffffffffff168152602001908152602001600020805490506007600083815260200190815260200160002081905550600660008373ffffffffffffffffffffffffffffffffffffffff1673ffffffffffffffffffffffffffffffffffffffff1681526020019081526020016000208190806001815401808255809150509060018203906000526020600020016000909192909190915055505050565b60006131b68261268f565b15613229576040517f08c379a00000000000000000000000000000000000000000000000000000000081526004018080602001828103825260158152602001807f546f6b656e20616c72656164792065786973747321000000000000000000000081525060200191505060405180910390fd5b8073ffffffffffffffffffffffffffffffffffffffff168373ffffffffffffffffffffffffffffffffffffffff1614156132cb576040517f08c379a00000000000000000000000000000000000000000000000000000000081526004018080602001828103825260108152602001807f496e76616c69642061646472657373210000000000000000000000000000000081525060200191505060405180910390fd5b826002600084815260200190815260200160002060006101000a81548173ffffffffffffffffffffffffffffffffffffffff021916908373ffffffffffffffffffffffffffffffffffffffff160217905550613364600460008573ffffffffffffffffffffffffffffffffffffffff1673ffffffffffffffffffffffffffffffffffffffff168152602001908152602001600020613d7e565b818373ffffffffffffffffffffffffffffffffffffffff168273ffffffffffffffffffffffffffffffffffffffff167fddf252ad1be2c89b69c2b068fc378daa952ba7f163c4a11628f55a4df523b3ef60405160405180910390a4505050565b6008805490506009600083815260200190815260200160002081905550600881908060018154018082558091505090600182039060005260206000200160009091929091909150555050565b60606000821415613458576040518060400160405280600181526020017f30000000000000000000000000000000000000000000000000000000000000008152509050613538565b600082905060005b60008214613482578080600101915050600a828161347a57fe5b049150613460565b6060816040519080825280601f01601f1916602001820160405280156134b75781602001600182028038833980820191505090505b50905060006001830390505b6000861461353057600a86816134d557fe5b0660300160f81b828280600190039350815181106134ef57fe5b60200101907effffffffffffffffffffffffffffffffffffffffffffffffffffffffffffff1916908160001a905350600a868161352857fe5b0495506134c3565b819450505050505b919050565b60606135798383604051806020016040528060008152506040518060200160405280600081525060405180602001604052806000815250613dde565b905092915050565b6135896144a0565b60405180604001604052807f2265513de57adfef750f242e611ea8444a8bd26c41cbfa52dadbf1d4c7c909c981526020017f2404d9074625244f508f4a75285a230a238adfd6634ecb9613243f620afe9e738152508160000181905250604051806040016040528060405180604001604052807f12d0ed5dc21d8d8b56fe0ac85559a85680cdc0df3215bae95a8699d24ccbe47181526020017f096935351b05a0aa00c79f756b5bcd9ed2f7b6be5c781f62f3dbe11fd57a4d06815250815260200160405180604001604052807f27c102d1435a4e2596a01e7b9dab01c2d674569187e3f4ce59aafcf37a26fa2481526020017f1943e9325f600724a34b4d265b96b0242f0ea3c3bc45bb00a11168db0b315dd98152508152508160200181905250604051806040016040528060405180604001604052807f30356665d1d5ee88eb0090b2f9ad42bf7a39cfe78d8b902b341280b472e9d10581526020017f20d2451d758275d0532e9e7ad74098f2962a889da62f57c206f054e5b4b251a3815250815260200160405180604001604052807f15cb89acd2a732e3f8324cdb9822e71480ca439c42dd99eb69ae7aabfd2c612881526020017f0a33effdc8d5a231d7c173e7c0af1397ea708692eb9d3d2423cdbd98d5e175d48152508152508160400181905250604051806040016040528060405180604001604052807f0d59d2aa07690641584be924e7010d8bfa2d3ec3b4121067d7a918edc27743b381526020017f169c281306535545d2cd70ae97cb4353233a47e7125ae3359f4a83ca62e6b4dc815250815260200160405180604001604052807f1f50e3576f5d31bad04c1074d1a67eb8d367b698d9afc48c11f5ef2b38ddcbdc81526020017f29db85a88f1554cd6eca15dd8d8b73e42369e74c90692c5c824246a1a12491398152508152508160600181905250600360405190808252806020026020018201604052801561387057816020015b61385d61452d565b8152602001906001900390816138555790505b50816080018190525060405180604001604052807f086593877a17b9bb273c37a07da6b515d26052fe732d4148015dde0d438677d881526020017f0e1aba3529817aac08b62458dab571fae367373f2c817d502eed1dd22701936a81525081608001516000815181106138df57fe5b602002602001018190525060405180604001604052807f1223c7eda0a8b13d325509bd24b34efd853fe2ef3b3c3d7520ba21c0387476eb81526020017f11692dc87da65404066ac5458bf6366c71d62c4cb0f38cfefdb064412165ecf8815250816080015160018151811061395057fe5b602002602001018190525060405180604001604052807f0eef39731bb46235f1823315237d47d96c0c8d88cfe02b1f61c7c7495d4961f281526020017f1d8180c036c9cd4094fdb419cb186368c71fe8b4c029f2796d4d76c598d12a5a81525081608001516002815181106139c157fe5b602002602001018190525090565b6139d76144e7565b6139df614547565b8360000151816000600381106139f157fe5b602002018181525050836020015181600160038110613a0c57fe5b6020020181815250508281600260038110613a2357fe5b602002018181525050600060608360808460076107d05a03fa90508060008114613a4c57613a4e565bfe5b5080613a5957600080fd5b505092915050565b613a696144e7565b613a71614569565b836000015181600060048110613a8357fe5b602002018181525050836020015181600160048110613a9e57fe5b602002018181525050826000015181600260048110613ab957fe5b602002018181525050826020015181600360048110613ad457fe5b602002018181525050600060608360c08460066107d05a03fa90508060008114613afd57613aff565bfe5b5080613b0a57600080fd5b505092915050565b613b1a6144e7565b60007f30644e72e131a029b85045b68181585d97816a916871ca8d3c208c16d87cfd47905060008360000151148015613b57575060008360200151145b15613b7b576040518060400160405280600081526020016000815250915050613ba7565b60405180604001604052808460000151815260200182856020015181613b9d57fe5b0683038152509150505b919050565b600060606004604051908082528060200260200182016040528015613beb57816020015b613bd861452d565b815260200190600190039081613bd05790505b50905060606004604051908082528060200260200182016040528015613c2b57816020015b613c1861458b565b815260200190600190039081613c105790505b5090508a82600081518110613c3c57fe5b60200260200101819052508882600181518110613c5557fe5b60200260200101819052508682600281518110613c6e57fe5b60200260200101819052508482600381518110613c8757fe5b60200260200101819052508981600081518110613ca057fe5b60200260200101819052508781600181518110613cb957fe5b60200260200101819052508581600281518110613cd257fe5b60200260200101819052508381600381518110613ceb57fe5b6020026020010181905250613d0082826140a0565b9250505098975050505050505050565b60008060007fc5d2460186f7233c927e7db2dcc703c0e500b653ca82273b7bfad8045d85a47060001b9050833f9150808214158015613d5257506000801b8214155b92505050919050565b613d7360018260000154613d9490919063ffffffff16565b816000018190555050565b6001816000016000828254019250508190555050565b6000613dd683836040518060400160405280601e81526020017f536166654d6174683a207375627472616374696f6e206f766572666c6f7700008152506142f3565b905092915050565b6060808690506060869050606086905060608690506060869050606081518351855187518951010101016040519080825280601f01601f191660200182016040528015613e3a5781602001600182028038833980820191505090505b509050606081905060008090506000809050600090505b8851811015613ebf57888181518110613e6657fe5b602001015160f81c60f81b838380600101945081518110613e8357fe5b60200101907effffffffffffffffffffffffffffffffffffffffffffffffffffffffffffff1916908160001a9053508080600101915050613e51565b600090505b8751811015613f3257878181518110613ed957fe5b602001015160f81c60f81b838380600101945081518110613ef657fe5b60200101907effffffffffffffffffffffffffffffffffffffffffffffffffffffffffffff1916908160001a9053508080600101915050613ec4565b600090505b8651811015613fa557868181518110613f4c57fe5b602001015160f81c60f81b838380600101945081518110613f6957fe5b60200101907effffffffffffffffffffffffffffffffffffffffffffffffffffffffffffff1916908160001a9053508080600101915050613f37565b600090505b855181101561401857858181518110613fbf57fe5b602001015160f81c60f81b838380600101945081518110613fdc57fe5b60200101907effffffffffffffffffffffffffffffffffffffffffffffffffffffffffffff1916908160001a9053508080600101915050613faa565b600090505b845181101561408b5784818151811061403257fe5b602001015160f81c60f81b83838060010194508151811061404f57fe5b60200101907effffffffffffffffffffffffffffffffffffffffffffffffffffffffffffff1916908160001a905350808060010191505061401d565b82995050505050505050505095945050505050565b600081518351146140b057600080fd5b60008351905060006006820290506060816040519080825280602002602001820160405280156140ef5781602001602082028038833980820191505090505b50905060008090505b838110156142955786818151811061410c57fe5b60200260200101516000015182600060068402018151811061412a57fe5b60200260200101818152505086818151811061414257fe5b60200260200101516020015182600160068402018151811061416057fe5b60200260200101818152505085818151811061417857fe5b60200260200101516000015160016002811061419057fe5b60200201518260026006840201815181106141a757fe5b6020026020010181815250508581815181106141bf57fe5b6020026020010151600001516000600281106141d757fe5b60200201518260036006840201815181106141ee57fe5b60200260200101818152505085818151811061420657fe5b60200260200101516020015160016002811061421e57fe5b602002015182600460068402018151811061423557fe5b60200260200101818152505085818151811061424d57fe5b60200260200101516020015160006002811061426557fe5b602002015182600560068402018151811061427c57fe5b60200260200101818152505080806001019150506140f8565b5061429e6145b1565b6000602082602086026020860160086107d05a03fa905080600081146142c3576142c5565bfe5b50806142d057600080fd5b6000826000600181106142df57fe5b602002015114159550505050505092915050565b60008383111582906143a0576040517f08c379a00000000000000000000000000000000000000000000000000000000081526004018080602001828103825283818151815260200191508051906020019080838360005b8381101561436557808201518184015260208101905061434a565b50505050905090810190601f1680156143925780820380516001836020036101000a031916815260200191505b509250505060405180910390fd5b5060008385039050809150509392505050565b60405180606001604052806143c661452d565b81526020016143d361458b565b81526020016143e061452d565b81525090565b604051806060016040528060008019168152602001600073ffffffffffffffffffffffffffffffffffffffff168152602001600081525090565b828054600181600116156101000203166002900490600052602060002090601f016020900481019282601f1061446157805160ff191683800117855561448f565b8280016001018555821561448f579182015b8281111561448e578251825591602001919060010190614473565b5b50905061449c91906145d3565b5090565b6040518060a001604052806144b361452d565b81526020016144c061458b565b81526020016144cd61458b565b81526020016144da61458b565b8152602001606081525090565b604051806040016040528060008152602001600081525090565b8154818355818111156145285781836000526020600020918201910161452791906145d3565b5b505050565b604051806040016040528060008152602001600081525090565b6040518060600160405280600390602082028038833980820191505090505090565b6040518060800160405280600490602082028038833980820191505090505090565b604051806040016040528061459e6145f8565b81526020016145ab6145f8565b81525090565b6040518060200160405280600190602082028038833980820191505090505090565b6145f591905b808211156145f15760008160009055506001016145d9565b5090565b90565b604051806040016040528060029060208202803883398082019150509050509056fe53656e646572206973206e6f7420617574686f72697a656420746f20617070726f76654f776e65722063616e6e6f74207472616e7366657220746f6b656e20746f2068696d73656c6653656e646572206d7573742062652074686520636f6e7472616374206f776e6572546865206066726f6d60206164647265737320646f6573206e6f74206d617463682074686520746f6b656e206f776e657221a265627a7a723158207cfb912e774d07e1ac763fcb22e0d4126b1bdcfe7b2d6436a24a515e2935e39d64736f6c6343000510003268747470733a2f2f73332d75732d776573742d322e616d617a6f6e6177732e636f6d2f756461636974792d626c6f636b636861696e2f63617073746f6e652f",
  "source": "pragma solidity >=0.4.21 <0.6.0;\n\nimport \"../../zokrates/code/square/verifier.sol\";\nimport \"./ERC721Mintable.sol\";\n\n// TODO define a contract call to the zokrates generated solidity contract <Verifier> or <renamedVerifier>\n// Inharited Verifier contract\n\n// TODO define another contract named SolnSquareVerifier that inherits from your ERC721Mintable class\ncontract SolnSquareVerifier is CustomERC721Token, Verifier {\n    constructor(string memory name, string memory symbol)\n        public\n        CustomERC721Token(name, symbol)\n    {}\n\n    // TODO define a solutions struct that can hold an index & an address\n    struct Solution {\n        bytes32 index;\n        address sender;\n        uint256 token;\n    }\n    // TODO define an array of the above struct\n    Solution[] private _solutions;\n\n    // TODO define a mapping to store unique solutions submitted\n    mapping(address => Solution) private _solutionsMap;\n\n    // Keeping track of unique solution using \"exists\" map\n    mapping(bytes32 => bool) private _existsMap;\n\n    // TODO Create an event to emit when a solution is added\n    event SolutionAdded(address sender);\n\n    // verifying solution exists\n    function solutionExists(address owner) public view returns (bool exists) {\n        exists = _existsMap[_solutionsMap[owner].index];\n    }\n\n    // TODO Create a function to add the solutions to the array and emit the event\n    function addSolution(\n        uint256[2] memory a,\n        uint256[2][2] memory b,\n        uint256[2] memory c,\n        uint256[2] memory input\n    ) public {\n        bytes32 index = keccak256(abi.encodePacked(a, b, c, input));\n        require(!_existsMap[index], \"Solution already exists!\");\n        require(verifyTx(a, b, c, input), \"Solution was not verified!\");\n\n        Solution memory solution =\n            Solution({index: index, sender: msg.sender, token: 0});\n        _solutions.push(solution);\n        _existsMap[index] = true;\n        _solutionsMap[msg.sender] = solution;\n\n        emit SolutionAdded(msg.sender);\n    }\n\n    // TODO Create a function to mint new NFT only after the solution has been verified\n    //  - make sure the solution is unique (has not been used before)\n    //  - make sure you handle metadata as well as tokenSuplly\n    function mintNFT(address to, uint256 tokenId) public returns (bool minted) {\n        require(_solutionsMap[to].index > 0, \"404 Solution Not Found!\");\n        require(_solutionsMap[to].token == 0, \"Solution already has token\");\n\n        _mint(to, tokenId);\n        _solutionsMap[to].token = tokenId;\n        minted = true;\n    }\n}\n",
  "sourcePath": "/home/lium/Dev/Udacity/Blockchain-Capstone/eth-contracts/contracts/SolnSquareVerifier.sol",
  "compiler": {
    "name": "solc",
    "version": "0.5.16+commit.9c3226ce.Emscripten.clang"
  },
  "schemaVersion": "3.3.4",
  "updatedAt": "2021-04-10T17:52:27.828Z",
  "networkType": "ethereum",
  "devdoc": {
    "methods": {
      "isApprovedForAll(address,address)": {
        "details": "Tells whether an operator is approved by a given owner",
        "params": {
          "operator": "operator address which you want to query the approval of",
          "owner": "owner address which you want to query the approval of"
        },
        "return": "bool whether the given operator is approved by the given owner"
      },
      "setApprovalForAll(address,bool)": {
        "details": "Sets or unsets the approval of a given operator An operator is allowed to transfer all tokens of the sender on their behalf",
        "params": {
          "approved": "representing the status of the approval to be set",
          "to": "operator address to set the approval"
        }
      },
      "supportsInterface(bytes4)": {
        "details": "implement supportsInterface(bytes4) using a lookup table"
      },
      "tokenByIndex(uint256)": {
        "details": "Gets the token ID at a given index of all the tokens in this contract Reverts if the index is greater or equal to the total number of tokens",
        "params": {
          "index": "uint256 representing the index to be accessed of the tokens list"
        },
        "return": "uint256 token ID at the given index of the tokens list"
      },
      "tokenOfOwnerByIndex(address,uint256)": {
        "details": "Gets the token ID at a given index of the tokens list of the requested owner",
        "params": {
          "index": "uint256 representing the index to be accessed of the requested tokens list",
          "owner": "address owning the tokens list to be accessed"
        },
        "return": "uint256 token ID at the given index of the tokens list owned by the requested address"
      },
      "totalSupply()": {
        "details": "Gets the total amount of tokens stored by the contract",
        "return": "uint256 representing the total amount of tokens"
      }
    }
  },
  "userdoc": {
    "methods": {}
  }
}